{
  "contractName": "MindMap",
  "abi": [
    {
      "constant": true,
      "inputs": [
        {
          "name": "",
          "type": "uint256"
        }
      ],
      "name": "neurons",
      "outputs": [
        {
          "name": "id",
          "type": "uint256"
        },
        {
          "name": "url",
          "type": "string"
        }
      ],
      "payable": false,
      "stateMutability": "view",
      "type": "function"
    },
    {
      "constant": true,
      "inputs": [],
      "name": "neuronCount",
      "outputs": [
        {
          "name": "",
          "type": "uint256"
        }
      ],
      "payable": false,
      "stateMutability": "view",
      "type": "function"
    },
    {
      "anonymous": false,
      "inputs": [
        {
          "indexed": false,
          "name": "id",
          "type": "uint256"
        },
        {
          "indexed": false,
          "name": "url",
          "type": "string"
        }
      ],
      "name": "NeuronCreated",
      "type": "event"
    },
    {
      "constant": false,
      "inputs": [
        {
          "name": "_url",
          "type": "string"
        }
      ],
      "name": "createNeuron",
      "outputs": [],
      "payable": false,
      "stateMutability": "nonpayable",
      "type": "function"
    }
  ],
  "bytecode": "0x60806040526000805534801561001457600080fd5b50610443806100246000396000f3fe6080604052600436106100565763ffffffff7c0100000000000000000000000000000000000000000000000000000000600035041663595d5f39811461005b578063d12eff5014610104578063fd746b64146101b9575b600080fd5b34801561006757600080fd5b506100856004803603602081101561007e57600080fd5b50356101e0565b6040518083815260200180602001828103825283818151815260200191508051906020019080838360005b838110156100c85781810151838201526020016100b0565b50505050905090810190601f1680156100f55780820380516001836020036101000a031916815260200191505b50935050505060405180910390f35b34801561011057600080fd5b506101b76004803603602081101561012757600080fd5b81019060208101813564010000000081111561014257600080fd5b82018360208201111561015457600080fd5b8035906020019184600183028401116401000000008311171561017657600080fd5b91908080601f016020809104026020016040519081016040528093929190818152602001838380828437600092019190915250929550610286945050505050565b005b3480156101c557600080fd5b506101ce610376565b60408051918252519081900360200190f35b600160208181526000928352604092839020805481840180548651600296821615610100026000190190911695909504601f8101859004850286018501909652858552909491939290919083018282801561027c5780601f106102515761010080835404028352916020019161027c565b820191906000526020600020905b81548152906001019060200180831161025f57829003601f168201915b5050505050905082565b600080546001908101808355604080518082018252828152602080820187815293865284815291909420845181559151805192936102cc9390850192919091019061037c565b509050507f184afbf9959bb24a5a11281c9cea133a0099a4542f0dd193031fca80c450c157600054826040518083815260200180602001828103825283818151815260200191508051906020019080838360005b83811015610338578181015183820152602001610320565b50505050905090810190601f1680156103655780820380516001836020036101000a031916815260200191505b50935050505060405180910390a150565b60005481565b828054600181600116156101000203166002900490600052602060002090601f016020900481019282601f106103bd57805160ff19168380011785556103ea565b828001600101855582156103ea579182015b828111156103ea5782518255916020019190600101906103cf565b506103f69291506103fa565b5090565b61041491905b808211156103f65760008155600101610400565b9056fea165627a7a72305820a46dc53079d42051caf074ce26d6f48a9695886535c2d2dfab811259a9ea89cb0029",
  "source": "pragma solidity ^0.5.0;\n\ncontract MindMap {\n\n    //Neuron count applied globally.\n    uint public neuronCount = 0;\n    // A mind map contains a collection of Neuron's\n    struct Neuron {\n        uint id;\n    // The content of each Neuron\n        // The url\n        string url;\n    }\n\n    mapping(uint => Neuron) public neurons;\n\n    // Neuron created event\n    event NeuronCreated(\n        uint id,\n        string url\n    );\n\n    function createNeuron(string memory _url) public\n    {\n        neuronCount ++;\n        neurons[neuronCount] = Neuron(neuronCount, _url);\n        emit NeuronCreated(neuronCount, _url);\n    }\n}",
  "sourcePath": "/home/jcrisp/development/Apps/SocialEye_2/contracts/MindMap.sol",
  "compiler": {
    "name": "solc",
    "version": "0.5.0+commit.1d4f565a.Emscripten.clang"
  },
  "schemaVersion": "3.0.1",
  "updatedAt": "2019-03-03T07:41:07.265Z",
  "devdoc": {
    "methods": {}
  },
  "userdoc": {
    "methods": {}
  }
}